{
  "contractName": "Voting",
  "abi": [
    {
      "constant": true,
      "inputs": [
        {
          "name": "candidate",
          "type": "bytes32"
        }
      ],
      "name": "totalVotesFor",
      "outputs": [
        {
          "name": "",
          "type": "uint256"
        }
      ],
      "payable": false,
      "stateMutability": "view",
      "type": "function"
    },
    {
      "constant": true,
      "inputs": [],
      "name": "tokenSold",
      "outputs": [
        {
          "name": "",
          "type": "uint256"
        }
      ],
      "payable": false,
      "stateMutability": "view",
      "type": "function"
    },
    {
      "constant": true,
      "inputs": [
        {
          "name": "user",
          "type": "address"
        }
      ],
      "name": "voterDetails",
      "outputs": [
        {
          "name": "",
          "type": "uint256"
        },
        {
          "name": "",
          "type": "uint256[]"
        }
      ],
      "payable": false,
      "stateMutability": "view",
      "type": "function"
    },
    {
      "constant": false,
      "inputs": [
        {
          "name": "candidate",
          "type": "bytes32"
        },
        {
          "name": "votesInTokens",
          "type": "uint256"
        }
      ],
      "name": "voteForCandidate",
      "outputs": [],
      "payable": false,
      "stateMutability": "nonpayable",
      "type": "function"
    },
    {
      "constant": true,
      "inputs": [
        {
          "name": "",
          "type": "bytes32"
        }
      ],
      "name": "votesReceived",
      "outputs": [
        {
          "name": "",
          "type": "uint256"
        }
      ],
      "payable": false,
      "stateMutability": "view",
      "type": "function"
    },
    {
      "constant": true,
      "inputs": [],
      "name": "totalTokens",
      "outputs": [
        {
          "name": "",
          "type": "uint256"
        }
      ],
      "payable": false,
      "stateMutability": "view",
      "type": "function"
    },
    {
      "constant": true,
      "inputs": [],
      "name": "tokenPrice",
      "outputs": [
        {
          "name": "",
          "type": "uint256"
        }
      ],
      "payable": false,
      "stateMutability": "view",
      "type": "function"
    },
    {
      "constant": true,
      "inputs": [],
      "name": "allCandidates",
      "outputs": [
        {
          "name": "",
          "type": "bytes32[]"
        }
      ],
      "payable": false,
      "stateMutability": "view",
      "type": "function"
    },
    {
      "constant": false,
      "inputs": [
        {
          "name": "account",
          "type": "address"
        }
      ],
      "name": "transferTo",
      "outputs": [],
      "payable": false,
      "stateMutability": "nonpayable",
      "type": "function"
    },
    {
      "constant": false,
      "inputs": [],
      "name": "buy",
      "outputs": [
        {
          "name": "",
          "type": "uint256"
        }
      ],
      "payable": true,
      "stateMutability": "payable",
      "type": "function"
    },
    {
      "constant": true,
      "inputs": [
        {
          "name": "",
          "type": "uint256"
        }
      ],
      "name": "candidateList",
      "outputs": [
        {
          "name": "",
          "type": "bytes32"
        }
      ],
      "payable": false,
      "stateMutability": "view",
      "type": "function"
    },
    {
      "constant": true,
      "inputs": [
        {
          "name": "",
          "type": "address"
        }
      ],
      "name": "voterInfo",
      "outputs": [
        {
          "name": "voterAddress",
          "type": "address"
        },
        {
          "name": "tokensBought",
          "type": "uint256"
        }
      ],
      "payable": false,
      "stateMutability": "view",
      "type": "function"
    },
    {
      "constant": true,
      "inputs": [],
      "name": "balanceTokens",
      "outputs": [
        {
          "name": "",
          "type": "uint256"
        }
      ],
      "payable": false,
      "stateMutability": "view",
      "type": "function"
    },
    {
      "constant": true,
      "inputs": [
        {
          "name": "candidate",
          "type": "bytes32"
        }
      ],
      "name": "indexOfCandidate",
      "outputs": [
        {
          "name": "",
          "type": "uint256"
        }
      ],
      "payable": false,
      "stateMutability": "view",
      "type": "function"
    },
    {
      "inputs": [
        {
          "name": "tokens",
          "type": "uint256"
        },
        {
          "name": "pricePerToken",
          "type": "uint256"
        },
        {
          "name": "candidateNames",
          "type": "bytes32[]"
        }
      ],
      "payable": false,
      "stateMutability": "nonpayable",
      "type": "constructor"
    }
  ],
  "bytecode": "0x6060604052341561000f57600080fd5b604051610d5e380380610d5e83398101604052808051906020019091908051906020019091908051820191905050336000806101000a81548173ffffffffffffffffffffffffffffffffffffffff021916908373ffffffffffffffffffffffffffffffffffffffff16021790555082600381905550816005819055508260048190555080600690805190602001906100a89291906100b1565b50505050610129565b8280548282559060005260206000209081019282156100f3579160200282015b828111156100f25782518290600019169055916020019190600101906100d1565b5b5090506101009190610104565b5090565b61012691905b8082111561012257600081600090555060010161010a565b5090565b90565b610c26806101386000396000f3006060604052600436106100d0576000357c0100000000000000000000000000000000000000000000000000000000900463ffffffff1680632f265cf7146100d5578063519ee19e146101105780635938750d146101395780636b2dc6b5146101ce5780637021939f146101fe5780637e1c0c09146102395780637ff9b5961461026257806381c407151461028b578063a03fa7e3146102f5578063a6f2ae3a1461032e578063b13c744b1461034c578063cdf58d351461038b578063e4494a0f1461040b578063ecd098b014610434575b600080fd5b34156100e057600080fd5b6100fa60048080356000191690602001909190505061046f565b6040518082815260200191505060405180910390f35b341561011b57600080fd5b610123610494565b6040518082815260200191505060405180910390f35b341561014457600080fd5b610170600480803573ffffffffffffffffffffffffffffffffffffffff169060200190919050506104a2565b6040518083815260200180602001828103825283818151815260200191508051906020019060200280838360005b838110156101b957808201518184015260208101905061019e565b50505050905001935050505060405180910390f35b34156101d957600080fd5b6101fc60048080356000191690602001909190803590602001909190505061058c565b005b341561020957600080fd5b610223600480803560001916906020019091905050610828565b6040518082815260200191505060405180910390f35b341561024457600080fd5b61024c610840565b6040518082815260200191505060405180910390f35b341561026d57600080fd5b610275610846565b6040518082815260200191505060405180910390f35b341561029657600080fd5b61029e61084c565b6040518080602001828103825283818151815260200191508051906020019060200280838360005b838110156102e15780820151818401526020810190506102c6565b505050509050019250505060405180910390f35b341561030057600080fd5b61032c600480803573ffffffffffffffffffffffffffffffffffffffff169060200190919050506108ae565b005b610336610963565b6040518082815260200191505060405180910390f35b341561035757600080fd5b61036d6004808035906020019091905050610a6f565b60405180826000191660001916815260200191505060405180910390f35b341561039657600080fd5b6103c2600480803573ffffffffffffffffffffffffffffffffffffffff16906020019091905050610a93565b604051808373ffffffffffffffffffffffffffffffffffffffff1673ffffffffffffffffffffffffffffffffffffffff1681526020018281526020019250505060405180910390f35b341561041657600080fd5b61041e610ad7565b6040518082815260200191505060405180910390f35b341561043f57600080fd5b610459600480803560001916906020019091905050610add565b6040518082815260200191505060405180910390f35b6000600260008360001916600019168152602001908152602001600020549050919050565b600060045460035403905090565b60006104ac610b81565b600160008473ffffffffffffffffffffffffffffffffffffffff1673ffffffffffffffffffffffffffffffffffffffff16815260200190815260200160002060010154600160008573ffffffffffffffffffffffffffffffffffffffff1673ffffffffffffffffffffffffffffffffffffffff1681526020019081526020016000206002018080548060200260200160405190810160405280929190818152602001828054801561057c57602002820191906000526020600020905b815481526020019060010190808311610568575b5050505050905091509150915091565b600080600061059a85610add565b92507fffffffffffffffffffffffffffffffffffffffffffffffffffffffffffffffff83141515156105cb57600080fd5b6000600160003373ffffffffffffffffffffffffffffffffffffffff1673ffffffffffffffffffffffffffffffffffffffff1681526020019081526020016000206002018054905014156106a257600091505b6006805490508210156106a157600160003373ffffffffffffffffffffffffffffffffffffffff1673ffffffffffffffffffffffffffffffffffffffff168152602001908152602001600020600201805480600101828161067f9190610b95565b916000526020600020900160008090919091505550818060010192505061061e565b5b61073b600160003373ffffffffffffffffffffffffffffffffffffffff1673ffffffffffffffffffffffffffffffffffffffff16815260200190815260200160002060020180548060200260200160405190810160405280929190818152602001828054801561073157602002820191906000526020600020905b81548152602001906001019080831161071d575b5050505050610b38565b600160003373ffffffffffffffffffffffffffffffffffffffff1673ffffffffffffffffffffffffffffffffffffffff1681526020019081526020016000206001015403905083811015151561079057600080fd5b836002600087600019166000191681526020019081526020016000206000828254019250508190555083600160003373ffffffffffffffffffffffffffffffffffffffff1673ffffffffffffffffffffffffffffffffffffffff1681526020019081526020016000206002018481548110151561080957fe5b9060005260206000209001600082825401925050819055505050505050565b60026020528060005260406000206000915090505481565b60035481565b60055481565b610854610bc1565b60068054806020026020016040519081016040528092919081815260200182805480156108a457602002820191906000526020600020905b8154600019168152602001906001019080831161088c575b5050505050905090565b6000809054906101000a900473ffffffffffffffffffffffffffffffffffffffff1673ffffffffffffffffffffffffffffffffffffffff163373ffffffffffffffffffffffffffffffffffffffff1614151561090957600080fd5b8073ffffffffffffffffffffffffffffffffffffffff166108fc3073ffffffffffffffffffffffffffffffffffffffff16319081150290604051600060405180830381858888f19350505050151561096057600080fd5b50565b6000806005543481151561097357fe5b049050600454811115151561098757600080fd5b33600160003373ffffffffffffffffffffffffffffffffffffffff1673ffffffffffffffffffffffffffffffffffffffff16815260200190815260200160002060000160006101000a81548173ffffffffffffffffffffffffffffffffffffffff021916908373ffffffffffffffffffffffffffffffffffffffff16021790555080600160003373ffffffffffffffffffffffffffffffffffffffff1673ffffffffffffffffffffffffffffffffffffffff16815260200190815260200160002060010160008282540192505081905550806004600082825403925050819055508091505090565b600681815481101515610a7e57fe5b90600052602060002090016000915090505481565b60016020528060005260406000206000915090508060000160009054906101000a900473ffffffffffffffffffffffffffffffffffffffff16908060010154905082565b60045481565b600080600090505b600680549050811015610b31578260001916600682815481101515610b0657fe5b906000526020600020900154600019161415610b2457809150610b32565b8080600101915050610ae5565b5b50919050565b6000806000809150600090505b8351811015610b77578381815181101515610b5c57fe5b90602001906020020151820191508080600101915050610b45565b8192505050919050565b602060405190810160405280600081525090565b815481835581811511610bbc57818360005260206000209182019101610bbb9190610bd5565b5b505050565b602060405190810160405280600081525090565b610bf791905b80821115610bf3576000816000905550600101610bdb565b5090565b905600a165627a7a7230582077c8ed5cc63b919a968774ccdea2991aebf5d5bcad2662a77593e512923e20b00029",
  "source": "pragma solidity ^0.4.18;\r\n\r\nimport \"./Owned.sol\";\r\n\r\ncontract Voting is Owned {\r\n\r\n    struct Voter {\r\n        address voterAddress;\r\n        uint tokensBought;\r\n        uint[] tokensUsedPerCandidate;\r\n    }\r\n\r\n    mapping (address => Voter) public voterInfo;\r\n    mapping (bytes32 => uint) public votesReceived;\r\n\r\n    uint public totalTokens;\r\n    uint public balanceTokens;\r\n    uint public tokenPrice;\r\n\r\n    bytes32[] public candidateList;\r\n\r\n    function Voting(uint tokens, uint pricePerToken, bytes32[] candidateNames) public {\r\n        totalTokens = tokens;\r\n        tokenPrice = pricePerToken;\r\n        balanceTokens = tokens;\r\n        candidateList = candidateNames;\r\n    }\r\n\r\n    function totalVotesFor(bytes32 candidate) view public returns (uint) {\r\n        return votesReceived[candidate];\r\n    }\r\n\r\n    function voteForCandidate(bytes32 candidate, uint votesInTokens) public {\r\n        uint index = indexOfCandidate(candidate);\r\n        require(index != uint(-1));\r\n        if (voterInfo[msg.sender].tokensUsedPerCandidate.length == 0) {\r\n            for (uint i = 0; i < candidateList.length; i++) {\r\n                voterInfo[msg.sender].tokensUsedPerCandidate.push(0);\r\n            }\r\n        }\r\n\r\n        uint availableTokens = voterInfo[msg.sender].tokensBought - totalTokensUsed(voterInfo[msg.sender].tokensUsedPerCandidate);\r\n        require(availableTokens >= votesInTokens);\r\n\r\n        votesReceived[candidate] += votesInTokens;\r\n        voterInfo[msg.sender].tokensUsedPerCandidate[index] += votesInTokens;\r\n    }\r\n\r\n    function indexOfCandidate(bytes32 candidate) view public returns (uint) {\r\n        for (uint i = 0; i < candidateList.length; i++) {\r\n            if (candidateList[i] == candidate) {\r\n                return i;\r\n            }\r\n        }\r\n    }\r\n\r\n    function totalTokensUsed(uint[] _tokensUsedPerCandidate) private pure returns (uint) {\r\n        uint totalUsedTokens = 0;\r\n        for (uint i = 0; i < _tokensUsedPerCandidate.length; i++) {\r\n            totalUsedTokens += _tokensUsedPerCandidate[i];\r\n        }\r\n        return totalUsedTokens;\r\n  }\r\n\r\n  function buy() payable public returns (uint) {\r\n      uint tokensToBuy = msg.value / tokenPrice;\r\n      require(tokensToBuy <= balanceTokens);\r\n      voterInfo[msg.sender].voterAddress = msg.sender;\r\n      voterInfo[msg.sender].tokensBought += tokensToBuy;\r\n      balanceTokens -= tokensToBuy;\r\n      return tokensToBuy;\r\n  }\r\n\r\n  function tokenSold() view public returns (uint) {\r\n      return totalTokens - balanceTokens;\r\n  }\r\n\r\n  function voterDetails(address user) view public returns (uint, uint[]) {\r\n      return (voterInfo[user].tokensBought, voterInfo[user].tokensUsedPerCandidate);\r\n  }\r\n\r\n  function transferTo(address account) public onlyowner {\r\n      account.transfer(this.balance);\r\n  }\r\n\r\n  function allCandidates() view public returns (bytes32[]) {\r\n      return candidateList;\r\n  }\r\n\r\n}",
  "sourcePath": "C:\\Users\\shubham.suyal\\code\\GitHub\\hello_world_voting\\Part 3\\contracts\\Voting.sol",
  "compiler": {
    "name": "solc",
    "version": "0.4.18+commit.9cf6e910.Emscripten.clang"
  },
  "schemaVersion": "1.0.1",
  "updatedAt": "2017-12-15T12:15:11.121Z"
}