{
  "contractName": "Vote",
  "abi": [
    {
      "constant": true,
      "inputs": [
        {
          "name": "candidate",
          "type": "bytes32"
        }
      ],
      "name": "totalVotesFor",
      "outputs": [
        {
          "name": "",
          "type": "uint8"
        }
      ],
      "payable": false,
      "stateMutability": "view",
      "type": "function"
    },
    {
      "constant": true,
      "inputs": [
        {
          "name": "",
          "type": "bytes32"
        }
      ],
      "name": "votesReceived",
      "outputs": [
        {
          "name": "",
          "type": "uint8"
        }
      ],
      "payable": false,
      "stateMutability": "view",
      "type": "function"
    },
    {
      "constant": true,
      "inputs": [
        {
          "name": "",
          "type": "uint256"
        }
      ],
      "name": "candidateList",
      "outputs": [
        {
          "name": "",
          "type": "bytes32"
        }
      ],
      "payable": false,
      "stateMutability": "view",
      "type": "function"
    },
    {
      "constant": false,
      "inputs": [
        {
          "name": "candidate",
          "type": "bytes32"
        }
      ],
      "name": "voteForCandidate",
      "outputs": [
        {
          "name": "",
          "type": "bytes32"
        }
      ],
      "payable": false,
      "stateMutability": "nonpayable",
      "type": "function"
    },
    {
      "constant": false,
      "inputs": [
        {
          "name": "candidateNames",
          "type": "bytes32[]"
        }
      ],
      "name": "voteForCandidate",
      "outputs": [],
      "payable": false,
      "stateMutability": "nonpayable",
      "type": "constructor"
    }
  ],
  "bytecode": "0x6060604052341561000f57600080fd5b604051610308380380610308833981016040528080518201919050508060019080519060200190610041929190610048565b50506100c0565b82805482825590600052602060002090810192821561008a579160200282015b82811115610089578251829060001916905591602001919060010190610068565b5b509050610097919061009b565b5090565b6100bd91905b808211156100b95760008160009055506001016100a1565b5090565b90565b610239806100cf6000396000f300606060405260043610610062576000357c0100000000000000000000000000000000000000000000000000000000900463ffffffff1680632f265cf7146100675780637021939f146100a8578063b13c744b146100e9578063cc9ab26714610128575b600080fd5b341561007257600080fd5b61008c60048080356000191690602001909190505061014f565b604051808260ff1660ff16815260200191505060405180910390f35b34156100b357600080fd5b6100cd600480803560001916906020019091905050610180565b604051808260ff1660ff16815260200191505060405180910390f35b34156100f457600080fd5b61010a60048080359060200190919050506101a0565b60405180826000191660001916815260200191505060405180910390f35b341561013357600080fd5b61014d6004808035600019169060200190919050506101c4565b005b6000806000836000191660001916815260200190815260200160002060009054906101000a900460ff169050919050565b60006020528060005260406000206000915054906101000a900460ff1681565b6001818154811015156101af57fe5b90600052602060002090016000915090505481565b6001600080836000191660001916815260200190815260200160002060008282829054906101000a900460ff160192506101000a81548160ff021916908360ff160217905550505600a165627a7a72305820d055a18e0c3fa139824e5019427352d99a29178200c5e8cd12be974845c8f1ff0029",
  "source": "pragma solidity ^0.4.18;\r\n\r\ncontract Vote {\r\n  \r\n  mapping (bytes32 => uint8) public votesReceived;\r\n  \r\n  bytes32[] public candidateList;\r\n\r\n  function Vote(bytes32[] candidateNames) public {\r\n    candidateList = candidateNames;\r\n  }\r\n\r\n  function totalVotesFor(bytes32 candidate) view public returns (uint8) {\r\n    return votesReceived[candidate];\r\n  }\r\n\r\n  function voteForCandidate(bytes32 candidate) public {\r\n    votesReceived[candidate] += 1;\r\n  }\r\n\r\n}",
  "sourcePath": "C:\\Users\\shubham.suyal\\code\\GitHub\\hello_world_voting\\Part 2\\contracts\\Vote.sol",
  "compiler": {
    "name": "solc",
    "version": "0.4.18+commit.9cf6e910.Emscripten.clang"
  },
  "schemaVersion": "1.0.1",
  "updatedAt": "2017-12-15T10:03:36.654Z"
}